S010000074657374756172742E7372656398
S113000045C0000060C000005EC000005CC000008D
S11300105AC0000058C0000056C0000054C0000080
S113002052C0000050C000004EC000004CC0000090
S11300304AC00000D6C0000046C0000044C0000012
S113004042C0000040C000003EC000003CC00000B0
S11300503AC0000038C0000036C0000034C00000C0
S113006032C0000030C000002EC000002CC00000D0
S11300702AC0000028C0000026C0000024C00000E0
S113008022C0000020C000001EC0000011241FBEBA
S1130090CFEFD0E4DEBFCDBF11E0A0E0B1E0ECE0F3
S11300A0FDE000E00BBF02C007900D92A831B1073C
S11300B0D9F721E0A8E1B1E001C01D92A034B20754
S11300C0E1F7FED321C69CCF181619065CF00895FB
S11300D0000021503109E1F74F5F5F4F8417950706
S11300E019F4089540E050E027E033E0F1CF5E9842
S11300F088B95F9A00005F9882E090E0E5CF0895A8
S113010081E0F5CF0895813118F48158F0CF089536
S11301108155EDCF089584E690E0D6DF88E3E7DFEC
S113012086E0E5DF8FE0E3DF81E0E1DF8AE090E075
S1130130CBCF08955E9A88B95F9A00005F9881E0FA
S113014090E0C2CF08950F931F93CF93DF93182F9E
S1130150EB01D6DF8881882351F001E0010F812F64
S1130160D2DF8991E7DF102F88818111F6CFDF91EB
S1130170CF911F910F91089560930A0170930B0121
S113018080930C0190930D016093190170931A01EF
S113019080931B0190931C0108958BE08093810050
S11301A08DE790E0909389008093880082E08093AB
S11301B06F00109285001092840080910A01909142
S11301C00B01A0910C01B0910D0180931901909342
S11301D01A01A0931B01B0931C018FB780688FBFD5
S11301E008951F920F920FB60F9211248F939F932D
S11301F0AF93BF938091190190911A01A0911B01B3
S1130200B0911C010197A109B10980931901909340
S11302101A01A0931B01B0931C01892B8A2B8B2BF1
S113022099F481E080931D0180910A0190910B0162
S1130230A0910C01B0910D018093190190931A01C2
S1130240A0931B01B0931C01BF91AF919F918F911B
S11302500F900FBE0F901F901895813081F0E1EC44
S1130260F0E0808188618083E2ECF0E08081866048
S1130270808383E38093C4001092C5000895E9EC61
S1130280F0E0808188618083EAECF0E08081866020
S1130290808383E38093CC001092CD00089585E59C
S11302A081B98AEA82B90895CF9392B121E030E00E
S11302B0A90102C0440F551F8A95E2F7842F809547
S11302C0982392B995E09A95F1F7000092B1492BE1
S11302D042B99AE19A95F1F700C092B1892382B9A3
S11302E002C0220F331F6A95E2F7C22F80B18C231C
S11302F0E9F380B1282361F060E070E0CB0120E0F5
S113030030E040E85FE304D320B12C23C1F703C0FD
S113031060E070E0CB01CF9108954F925F926F92AD
S11303207F928F929F92AF92BF92CF92EF92FF9261
S11303300F931F93CF93DF9300D000D000D0CDB79D
S1130340DEB74B015C0129833A834B835C8327012D
S113035038018C2D81708D83C1FE03C082608D8332
S113036003C09D819D7F9D8320E030E040E152E405
S1130370C501B40113D488239CF081E08E8320E06E
S113038030E040E152E469817A818B819C8106D41A
S113039088230CF41E8281E09E818927C1F41BC04E
S11303A020E030E040E152E4C501B40115D38823D4
S11303B00CF066C020E030E040E152E469817A81CB
S11303C08B819C81EBD388230CF45CC083E09D81FA
S11303D09061998303C09D819F7E998381FF04C0AE
S11303E089818062898303C099819F7D998320E0FC
S11303F030E040E452E4C301B201EED288236CF44D
S113040081E08D8320E030E040E152E4C301B20199
S1130410C5D388231CF41D8201C01D8220E030E076
S113042040E152E4C301B201D7D288235CF420E056
S113043030E040EC51E4C301B201B0D3882314F09E
S113044092E09D8320E030E040EC51E4C301B2012E
S1130450C3D288232CF08D81982F927031F001C083
S113046083E099819860998303C09981977F9983E8
S113047080FF03C08981846007C089818B7F04C0A9
S113048080E0A9CF82E0A7CF26960FB6F894DEBF0E
S11304900FBECDBFDF91CF911F910F91FF90EF90D1
S11304A0CF90BF90AF909F908F907F906F905F9010
S11304B04F900895AF92CF92EF92FF920F931F93B4
S11304C0CF93DF93CDB7DEB728DF9091C00095FFBF
S11304D00AC0AA0CAA0CAA0CAA0C869586958F7041
S11304E0A82AA092C600DF91CF911F910F91FF908F
S11304F0EF90CF90AF900895BED32091C00025FF18
S113050008C0907899231CF401979F6F01968093FB
S1130510C600089580913F01882319F0813041F08D
S113052004C081E080933F0103C010923F0108950D
S1130530E8E0F1E061818081B7DE60931E01709391
S11305401F018093200190932101E6E0F1E0618195
S11305508081AADE60933501709336018093370160
S113056090933801E4E0F1E0618180819DDE609345
S11305702A0170932B0180932C0190932D010895EF
S11305808F92AF92CF92EF92FF920F931F9380912D
S11305903A01882319F0813041F004C081E080934E
S11305A03A0103C010923A0120C0E0903101F0906A
S11305B032010091330110913401209122013091D4
S11305C02301409124015091250160913B017091D8
S11305D03C0180913D0190913E016894882481F80A
S11305E0A0902601CC24C39465DF1F910F91FF9046
S11305F0EF90CF90AF908F90089580913901813022
S113060051F018F0823079F01AC081E080933901FA
S113061010922F010895809130018823F1F082E037
S1130620809339010EC080912F018B3F50F081E0FF
S1130630809339011092300110922F010895823075
S113064061F480912F0180FD02C0169A01C01698B2
S113065080912F018F5F80932F0108950CD38F70A9
S11306609078992324F40197806F9F6F019680936B
S1130670260108954F925F926F927F928F929F927C
S1130680AF92BF92CF92EF92FF920F931F93CF93AB
S1130690DF9300D000D0CDB7DEB780901E019090DC
S11306A01F01A0902001B0902101C501B40198D18F
S11306B070E080E090E0C0D160933B0170933C0116
S11306C080933D0190933E01409035015090360156
S11306D06090370170903801C301B20181D170E09C
S11306E080E090E0A9D1609322017093230180936C
S11306F024019093250180912A0190912B01A091CE
S11307002C01B0912D0189839A83AB83BC83BC01F6
S1130710CD0166D170E080E090E08ED1609331012C
S1130720709332018093330190933401C12CE9809A
S1130730FA800B811C81A3019201C501B401EDDD96
S1130740869586958F709091260189130AC08091B1
S11307502E018F5F80932E01809129018F5F8093FA
S113076029010F900F900F900F90DF91CF911F915F
S11307700F91FF90EF90CF90BF90AF909F908F908C
S11307807F906F905F904F9008956091290170E081
S1130790605D7F4F81E0D7CC08958091280182303D
S11307A0D1F128F4882349F0813059F05FC08330B7
S11307B0E9F1843009F454C059C081E080932801E0
S11307C065C06EE071E081E0BEDC07991EC0109246
S11307D03B0110923C0110923D0110923E01109297
S11307E022011092230110922401109225011092EB
S11307F0310110923201109233011092340110929F
S1130800260182E08093280103C081E080932801BF
S1130810109229012EC0079903C01092280103C029
S113082083E0809328011092300123C080912E012F
S1130830882349F082E08093280181E0809330018D
S113084010922E012DC0079903C01092280108951B
S113085080912701883758F184E0809328012EC0C5
S113086007992CC081E08093280110C010922801C0
S1130870089580912801823099F018F48130F9F4B8
S113088005C08330A1F08430C9F0089535DE10929C
S11308902E0110923001109229011092270108951F
S11308A0DDDE809127018F5F809327010895E2DECA
S11308B0809127018F5F80932701089566CF089563
S11308C080E0CBDC81E0C9DC61E070E080E090E0B6
S11308D053DC63DCE4DC8FEF87B918B88AB91BB842
S11308E01ADC80911D018823E1F3809118018A3F6D
S11308F028F010DE45DE51DF109218017EDE809173
S113090018018F5F8093180110921D01EACF50588F
S1130910BB27AA270ED008C1F9D030F0FED020F0B2
S113092031F49F3F11F41EF4EEC00EF4E095E7FBA2
S1130930E4C0E92F0AD180F3BA176207730784076A
S1130940950718F071F49EF522C10EF4E0950B2E74
S1130950BA2FA02D0B01B90190010C01CA01A0010D
S11309601124FF27591B99F0593F50F4503E68F168
S11309701A16F040A22F232F342F4427585FF3CFA9
S1130980469537952795A795F0405395C9F77EF47A
S11309901F16BA0B620B730B840BBAF09150A1F0C3
S11309A0FF0FBB1F661F771F881FC2F70EC0BA0F49
S11309B0621F731F841F48F4879577956795B795D1
S11309C0F7959E3F08F0B3CF9395880F08F09927C9
S11309D0EE0F9795879508956CD008F481E00895FB
S11309E0BCD088F09F5790F0B92F9927B751A0F049
S11309F0D1F0660F771F881F991F1AF0BA95C9F7AF
S1130A0012C0B13081F0C3D0B1E00895C0C0672FE7
S1130A10782F8827B85F39F0B93FCCF3869577955E
S1130A206795B395D9F73EF4909580957095619547
S1130A307F4F8F4F9F4F0895E89409C097FB3EF472
S1130A4090958095709561957F4F8F4F9F4F992317
S1130A50A9F0F92F96E9BB279395F6958795779595
S1130A606795B795F111F8CFFAF4BB0F11F460FF55
S1130A701BC06F5F7F4F8F4F9F4F16C0882311F0AD
S1130A8096E911C0772321F09EE8872F762F05C0C1
S1130A90662371F096E8862F70E060E02AF09A955C
S1130AA0660F771F881FDAF7880F9695879597F951
S1130AB00895990F0008550FAA0BE0E8FEEF1616EB
S1130AC01706E807F907C0F012161306E407F5073E
S1130AD098F0621B730B840B950B39F40A2661F0B2
S1130AE0232B242B252B21F408950A2609F4A14055
S1130AF0A6958FEF811D811D089597F99F6780E862
S1130B0070E060E008959FEF80EC089500240A945B
S1130B101616170618060906089500240A941216D4
S1130B201306140605060895092E0394000C11F407
S1130B30882352F0BB0F40F4BF2B11F460FF04C0B4
S1130B406F5F7F4F8F4F9F4F089557FD9058440F0D
S1130B50551F59F05F3F71F04795880F97FB991F18
S1130B6061F09F3F79F087950895121613061406D5
S1130B70551FF2CF4695F1DF08C016161706180662
S1130B80991FF1CF86957105610508940895E8943D
S1130B90BB2766277727CB0197F908958ADF08F4E6
S1130BA08FEF0895A1E21A2EAA1BBB1BFD010DC0F5
S1130BB0AA1FBB1FEE1FFF1FA217B307E407F50709
S1130BC020F0A21BB30BE40BF50B661F771F881FE5
S1130BD0991F1A9469F760957095809590959B017B
S1130BE0AC01BD01CF0108958F929F92AF92BF9245
S1130BF0CF92DF92EF92FF92CF93DF93EC01688163
S1130C0079818A819B81611571058105910521F4A2
S1130C1064E279ED8BE597E02DE133EF41E050E0BC
S1130C2038D049015A019B01AC01A7EAB1E44DD087
S1130C306B017C01ACEEB4EFA501940152D0DC0150
S1130C40CB018C0D9D1DAE1DBF1DB7FF03C00197C9
S1130C50A109B04888839983AA83BB839F77DF91D6
S1130C60CF91FF90EF90DF90CF90BF90AF909F9087
S1130C708F900895B9CF80E091E0B6CFA0E0B0E0C6
S1130C808093000190930101A0930201B0930301AA
S1130C900895052E97FB16F400940FD057FD05D048
S1130CA081DF07FC02D046F408C05095409530958A
S1130CB021953F4F4F4F5F4F0895909580957095C4
S1130CC061957F4F8F4F9F4F08950FD0A59F900D33
S1130CD0B49F900DA49F800D911D11240895B7FF1A
S1130CE0F4CFF3DF821B930B0895A29FB001B39F4F
S1130CF0C001A39F700D811D1124911DB29F700D21
S10F0D00811D1124911D0895F894FFCF6B
S1130D0C0100000004050203000101000000576506
S10B0D1C6C636F6D652100009A
S9030000FC
