S010000074657374756172742E7372656398
S113000045C0000060C000005EC000005CC000008D
S11300105AC0000058C0000056C0000054C0000080
S113002052C0000050C000004EC000004CC0000090
S11300304AC00000D6C0000046C0000044C0000012
S113004042C0000040C000003EC000003CC00000B0
S11300503AC0000038C0000036C0000034C00000C0
S113006032C0000030C000002EC000002CC00000D0
S11300702AC0000028C0000026C0000024C00000E0
S113008022C0000020C000001EC0000011241FBEBA
S1130090CFEFD0E4DEBFCDBF11E0A0E0B1E0E6EAEF
S11300A0FEE000E00BBF02C007900D92A632B1073C
S11300B0D9F721E0A6E2B1E001C01D92AA3FB20740
S11300C0E1F76CD4EEC69CCF181619065CF00895BF
S11300D0000021503109E1F74F5F5F4F8417950706
S11300E019F4089540E050E027E033E0F1CF5E9842
S11300F088B95F9A00005F9882E090E0E5CF0895A8
S113010081E0F5CF0895813118F48158F0CF089536
S11301108155EDCF089584E690E0D6DF88E3E7DFEC
S113012086E0E5DF8FE0E3DF81E0E1DF8AE090E075
S1130130CBCF08955E9A88B95F9A00005F9881E0FA
S113014090E0C2CF08950F931F93CF93DF93182F9E
S1130150EB01D6DF8881882351F001E0010F812F64
S1130160D2DF8991E7DF102F88818111F6CFDF91EB
S1130170CF911F910F91089560930A0170930B0121
S113018080930C0190930D016093270170932801D3
S11301908093290190932A0108958BE08093810034
S11301A08DE790E0909389008093880082E08093AB
S11301B06F00109285001092840080910A01909142
S11301C00B01A0910C01B0910D0180932701909334
S11301D02801A0932901B0932A018FB780688FBFAB
S11301E008951F920F920FB60F9211248F939F932D
S11301F0AF93BF938091270190912801A091290189
S1130200B0912A010197A109B10980932701909324
S11302102801A0932901B0932A01892B8A2B8B2BC7
S113022099F481E080932B0180910A0190910B0154
S1130230A0910C01B0910D018093270190932801A6
S1130240A0932901B0932A01BF91AF919F918F91FF
S11302500F900FBE0F901F901895813081F0E1EC44
S1130260F0E0808188618083E2ECF0E08081866048
S1130270808383E38093C4001092C5000895E9EC61
S1130280F0E0808188618083EAECF0E08081866020
S1130290808383E38093CC001092CD00089585E59C
S11302A081B98AEA82B90895CF9392B121E030E00E
S11302B0A90102C0440F551F8A95E2F7842F809547
S11302C0982392B995E09A95F1F7000092B1492BE1
S11302D042B99AE19A95F1F700C092B1892382B9A3
S11302E002C0220F331F6A95E2F7C22F80B18C231C
S11302F0E9F380B1282361F060E070E0CB0120E0F5
S113030030E040E85FE372D320B12C23C1F703C08F
S113031060E070E0CB01CF9108954F925F926F92AD
S11303207F928F929F92AF92BF92CF92EF92FF9261
S11303300F931F93CF93DF9300D000D000D0CDB79D
S1130340DEB74B015C0129833A834B835C8327012D
S113035038018C2D81708D83C1FE03C082608D8332
S113036003C09D819D7F9D8320E030E040E152E405
S1130370C501B40181D488239CF081E08E8320E000
S113038030E040E152E469817A818B819C8174D4AC
S113039088230CF41E8281E09E818927C1F41BC04E
S11303A020E030E040E152E4C501B40183D3882366
S11303B00CF066C020E030E040E152E469817A81CB
S11303C08B819C8159D488230CF45CC083E09D818B
S11303D09061998303C09D819F7E998381FF04C0AE
S11303E089818062898303C099819F7D998320E0FC
S11303F030E040E452E4C301B2015CD388236CF4DE
S113040081E08D8320E030E040E152E4C301B20199
S113041033D488231CF41D8201C01D8220E030E007
S113042040E152E4C301B20145D388235CF420E0E7
S113043030E040EC51E4C301B2011ED4882314F02F
S113044092E09D8320E030E040EC51E4C301B2012E
S113045031D388232CF08D81982F927031F001C014
S113046083E099819860998303C09981977F9983E8
S113047080FF03C08981846007C089818B7F04C0A9
S113048080E0A9CF82E0A7CF26960FB6F894DEBF0E
S11304900FBECDBFDF91CF911F910F91FF90EF90D1
S11304A0CF90BF90AF909F908F907F906F905F9010
S11304B04F900895AF92CF92EF92FF920F931F93B4
S11304C0CF93DF93CDB7DEB728DF9091C00095FFBF
S11304D00AC0AA0CAA0CAA0CAA0C869586958F7041
S11304E0A82AA092C600DF91CF911F910F91FF908F
S11304F0EF90CF90AF9008952CD42091C00025FFA9
S113050008C0907899231CF401979F6F01968093FB
S1130510C60008958091F901882319F0813041F0D3
S113052004C081E08093F90103C01092F901089599
S1130530E8E0F1E061818081B7DE60932C01709383
S11305402D0180932E0190932F01E6E0F1E061816B
S11305508081AADE60939F017093A0018093A10122
S11305609093A201E4E0F1E0618180819DDE6093DB
S1130570890170938A0180938B0190938C01089573
S11305808F92AF92CF92EF92FF920F931F9380912D
S1130590A401882319F0813041F004C081E08093E4
S11305A0A40103C01092A40120C0E0909B01F0902C
S11305B09C0100919D0110919E0120913001309188
S11305C0310140913201509133016091A501709144
S11305D0A6018091A7019091A8016894882481F8CC
S11305E0A0903401CC24C39465DF1F910F91FF9038
S11305F0EF90CF90AF908F9008958091A3018130B8
S113060051F018F0823079F01AC081E08093A30190
S113061010928E010895809199018823F1F082E06F
S11306208093A3010EC080918E018B3F50F081E036
S11306308093A3011092990110928E010895823043
S113064061F480918E0180FD02C0169A01C0169853
S113065080918E018F5F80938E0108957AD38F707D
S11306609078992324F40197806F9F6F019680936B
S1130670340108954F925F926F927F928F929F926E
S1130680AF92BF92CF92EF92FF920F931F93CF93AB
S1130690DF9300D000D0CDB7DEB76EE071E081E02B
S11306A052DD80902C0190902D01A0902E01B090ED
S11306B02F01C501B40102D270E080E090E02AD29B
S11306C06093A5017093A6018093A7019093A8015C
S11306D040909F015090A0016090A1017090A201F0
S11306E0C301B201EBD170E080E090E013D26093DB
S11306F030017093310180933201909333018091E2
S1130700890190918A01A0918B01B0918C01898318
S11307109A83AB83BC83BC01CD01D0D170E080E06F
S113072090E0F8D160939B0170939C0180939D01AC
S113073090939E01C12CE980FA800B811C81A30156
S11307409201C501B401E9DD869586958F7090917B
S1130750340189130EC080918D018F5F80938D01C8
S113076080918701909188010196909388018093EC
S113077087010F900F900F900F90DF91CF911F91F1
S11307800F91FF90EF90CF90BF90AF909F908F907C
S11307907F906F905F904F900895CF93DF938AE09E
S11307A090E02AD3EC01609187017091880186174B
S11307B0970734F48AE090E027D381E080939A018C
S11307C081E0809399014AE06FE871E080918701AC
S11307D090918801DED26FE871E087E391E0D2D294
S11307E0A7E3B1E00D900020E9F7119787E0E2E17B
S11307F0F1E001900D928A95E1F74AE06FE871E02B
S1130800CE01C7D26FE871E087E391E0B0D2809166
S11308109A01811112C0A7E3B1E00D900020E9F71D
S1130820119786E0E9E1F1E001900D928A95E1F7F4
S11308306FE770E087E391E09AD267E371E081E0CB
S113084082DC80919A01811102C08FE773DCDF9111
S1130850CF91089580913601823009F448C028F47C
S1130860882351F0813061F06DC0833009F44AC0AF
S1130870843009F461C066C081E08093360172C09F
S113088010929A0187E0EFE1F1E0A9EAB1E001906A
S11308900D928A95E1F769EA71E081E054DC0799E9
S11308A01EC01092A5011092A6011092A7011092E9
S11308B0A80110923001109231011092320110926D
S11308C0330110929B0110929C0110929D01109291
S11308D09E011092340182E08093360103C081E0CE
S11308E08093360110928801109287012EC00799D7
S11308F003C01092360103C083E080933601109246
S1130900990123C080918D01882349F082E080936E
S1130910360181E08093990110928D012FC00799CF
S113092003C010923601089580913501883768F12B
S113093084E08093360130C007992EC081E0809313
S1130940360110C01092360108958091360182302C
S1130950A9F018F4813009F505C08330B1F0843072
S1130960D9F00895C9DD10928D0110929901109269
S11309708801109287011092350108956FDE8091ED
S113098035018F5F80933501089574DE80913501C0
S11309908F5F80933501089500CF089580E05DDC7A
S11309A081E05BDC61E070E080E090E0E5DBF5DBBA
S11309B076DC8FEF87B918B88AB91BB8ACDB8091A5
S11309C02B018823E1F3809126018A3F28F0A2DDE0
S11309D0D7DD40DF1092260110DE809126018F5F63
S11309E08093260110922B01EACF5058BB27AA27E7
S11309F00ED008C1F9D030F0FED020F031F49F3F82
S1130A0011F41EF4EEC00EF4E095E7FBE4C0E92F08
S1130A100AD180F3BA17620773078407950718F0A1
S1130A2071F49EF522C10EF4E0950B2EBA2FA02D81
S1130A300B01B90190010C01CA01A0011124FF2787
S1130A40591B99F0593F50F4503E68F11A16F04082
S1130A50A22F232F342F4427585FF3CF4695379581
S1130A602795A795F0405395C9F77EF41F16BA0B46
S1130A70620B730B840BBAF09150A1F0FF0FBB1FF4
S1130A80661F771F881FC2F70EC0BA0F621F731F3D
S1130A90841F48F4879577956795B795F7959E3F9A
S1130AA008F0B3CF9395880F08F09927EE0F979528
S1130AB0879508956CD008F481E00895BCD088F03F
S1130AC09F5790F0B92F9927B751A0F0D1F0660F36
S1130AD0771F881F991F1AF0BA95C9F712C0B13051
S1130AE081F0C3D0B1E00895C0C0672F782F882764
S1130AF0B85F39F0B93FCCF3869577956795B39590
S1130B00D9F73EF490958095709561957F4F8F4FFE
S1130B109F4F0895E89409C097FB3EF49095809503
S1130B20709561957F4F8F4F9F4F9923A9F0F92FAF
S1130B3096E9BB279395F695879577956795B7952D
S1130B40F111F8CFFAF4BB0F11F460FF1BC06F5F13
S1130B507F4F8F4F9F4F16C0882311F096E911C025
S1130B60772321F09EE8872F762F05C0662371F046
S1130B7096E8862F70E060E02AF09A95660F771F5A
S1130B80881FDAF7880F9695879597F90895990F36
S1130B900008550FAA0BE0E8FEEF16161706E80743
S1130BA0F907C0F012161306E407F50798F0621B64
S1130BB0730B840B950B39F40A2661F0232B242B39
S1130BC0252B21F408950A2609F4A140A6958FEF58
S1130BD0811D811D089597F99F6780E870E060E0AA
S1130BE008959FEF80EC089500240A9416161706C2
S1130BF018060906089500240A941216130614060A
S1130C0005060895092E0394000C11F4882352F06C
S1130C10BB0F40F4BF2B11F460FF04C06F5F7F4F24
S1130C208F4F9F4F089557FD9058440F551F59F00B
S1130C305F3F71F04795880F97FB991F61F09F3FC5
S1130C4079F087950895121613061406551FF2CFEE
S1130C504695F1DF08C0161617061806991FF1CF3E
S1130C6086957105610508940895E894BB27662765
S1130C707727CB0197F908958ADF08F48FEF089559
S1130C80A1E21A2EAA1BBB1BFD010DC0AA1FBB1F8C
S1130C90EE1FFF1FA217B307E407F50720F0A21BFE
S1130CA0B30BE40BF50B661F771F881F991F1A946B
S1130CB069F760957095809590959B01AC01BD0195
S1130CC0CF0108958F929F92AF92BF92CF92DF92FD
S1130CD0EF92FF92CF93DF93EC01688179818A814F
S1130CE09B81611571058105910521F464E279ED1B
S1130CF08BE597E02DE133EF41E050E097D04901D7
S1130D005A019B01AC01A7EAB1E4ACD06B017C01B0
S1130D10ACEEB4EFA5019401B1D0DC01CB018C0D94
S1130D209D1DAE1DBF1DB7FF03C00197A109B048AB
S1130D3088839983AA83BB839F77DF91CF91FF90A8
S1130D40EF90DF90CF90BF90AF909F908F900895D9
S1130D50B9CF80E091E0B6CFA0E0B0E0809300018D
S1130D6090930101A0930201B09303010895FB0144
S1130D70DC010D900020E9F7119701900D920020FD
S1130D80E1F70895FB01DC0101900D920020E1F7E9
S1130D900895BB274A3031F4992322F4BDE290959B
S1130DA081959F4F01C0BB27FB015527AA27880FB8
S1130DB0991FAA1FA41710F0A41B83955051B9F7CB
S1130DC0A05DAA3308F0A95DA193009779F7B1114A
S1130DD0B1931192CB0100C0DC01FC01672F71912A
S1130DE07723E1F7329704C07C916D93708362910D
S1130DF0AE17BF07C8F30895F999FECF92BD81BD20
S1130E00F89A992780B50895262FF999FECF92BDB7
S1130E1081BDF89A019700B4021639F01FBA20BDBB
S1130E200FB6F894FA9AF99A0FBE0895052E97FB17
S1130E3016F400940FD057FD05D022DF07FC02D032
S1130E4046F408C050954095309521953F4F4F4F3B
S1130E505F4F089590958095709561957F4F8F4F62
S1130E609F4F08950FD0A59F900DB49F900DA49F00
S1130E70800D911D11240895B7FFF4CFF3DF821B79
S1130E80930B0895A29FB001B39FC001A39F700D5F
S1130E90811D1124911DB29F700D811D1124911D7E
S1090EA00895F894FFCF51
S1130EA60100000004050203000101000000474F91
S1130EB62100204154483A2000204E455720005234
S1090EC6656164793F0040
S9030000FC
