S010000074657374756172742E7372656398
S113000045C0000060C000005EC000005CC000008D
S11300105AC0000058C0000056C0000054C0000080
S113002052C0000050C000004EC000004CC0000090
S11300304AC000007EC0000046C0000044C000006A
S113004042C0000040C000003EC000003CC00000B0
S11300503AC0000038C0000036C0000034C00000C0
S113006032C0000030C000002EC000002CC00000D0
S11300702AC0000028C0000026C0000024C00000E0
S113008022C0000020C000001EC0000011241FBEBA
S1130090CFEFD0E4DEBFCDBF11E0A0E0B1E0E0E5FA
S11300A0F6E000E00BBF02C007900D92A430B10748
S11300B0D9F721E0A4E0B1E001C01D92A930B20754
S11300C0E1F7B2D1C3C29CCF6093000170930101E8
S11300D080930201909303016093040170930501DE
S11300E0809306019093070108958BE0809381002B
S11300F08DE790E0909389008093880082E080935C
S11301006F001092850010928400809100019091FC
S11301100101A0910201B091030180930401909325
S11301200501A0930601B09307018FB780688FBFC4
S113013008951F920F920FB60F9211248F939F93DD
S1130140AF93BF938091040190910501A0910601A2
S1130150B09107010197A109B1098093040190931B
S11301600501A0930601B0930701892B8A2B8B2BE1
S113017099F481E08093080180910001909101013C
S1130180A0910201B09103018093040190930501B1
S1130190A0930601B0930701BF91AF919F918F91F6
S11301A00F900FBE0F901F901895813081F0E1ECF5
S11301B0F0E0808188618083E2ECF0E080818660F9
S11301C0808383E38093C4001092C5000895E9EC12
S11301D0F0E0808188618083EAECF0E080818660D1
S11301E0808383E38093CC001092CD000895613026
S11301F041F0E0ECF0E0908195FFFDCF8093C600E4
S11302000895E8ECF0E0908195FFFDCF8093CE0057
S1130210089585E581B98AEA82B90895CF9392B1A8
S113022021E030E0A90102C0440F551F8A95E2F78E
S1130230842F8095982392B995E09A95F1F7000060
S113024092B1492B42B99AE19A95F1F700C092B163
S1130250892382B902C0220F331F6A95E2F7C22FA5
S113026080B18C23E9F380B1282361F060E070E071
S1130270CB0120E030E040E85FE307D120B12C233C
S1130280C1F703C060E070E0CB01CF9108954F92B5
S11302905F926F927F928F929F92AF92BF92CF9212
S11302A0EF92FF920F931F93CF93DF9300D000D070
S11302B000D0CDB7DEB74B015C0129833A834B8371
S11302C05C83270138018C2D81708D83C1FE03C0AE
S11302D082608D8303C09D819D7F9D8320E030E0FB
S11302E040E152E4C501B401ADD188239CF081E022
S11302F08E8320E030E040E152E469817A818B8191
S11303009C81A0D188230CF41E8281E09E818927E0
S1130310C1F41BC020E030E040E152E4C501B40167
S113032018D188230CF066C020E030E040E152E4AC
S113033069817A818B819C8185D188230CF45CC08E
S113034083E09D819061998303C09D819F7E998301
S113035081FF04C089818062898303C099819F7D64
S1130360998320E030E040E452E4C301B201F1D0CB
S113037088236CF481E08D8320E030E040E152E496
S1130380C301B2015FD188231CF41D8201C01D8208
S113039020E030E040E152E4C301B201DAD0882326
S11303A05CF420E030E040EC51E4C301B2014AD1F6
S11303B0882314F092E09D8320E030E040EC51E487
S11303C0C301B201C6D088232CF08D81982F92707E
S11303D031F001C083E099819860998303C09981C9
S11303E0977F998380FF03C08981846007C08981D6
S11303F08B7F04C080E0A9CF82E0A7CF26960FB6FA
S1130400F894DEBF0FBECDBFDF91CF911F910F9146
S1130410FF90EF90CF90BF90AF909F908F907F9080
S11304206F905F904F90089580E0BFDE81E0BDDE65
S11304306AEF70E080E090E047DE57DEEADEC0EC71
S1130440D0E0809108018823E1F361E080E0E6DEFA
S11304504B015C0163E082E0E1DE2B013C0165E0DD
S113046084E0DCDE288125FF0CC06894CC24C1F82C
S11304707B018C01A3019201C501B40108DF60E096
S1130480B6DE10920801DDCF5058BB27AA270ED044
S11304909FC090D030F095D020F031F49F3F11F4FC
S11304A01EF485C00EF4E095E7FB7BC0E92FA1D0D4
S11304B080F3BA17620773078407950718F071F47D
S11304C09EF5B9C00EF4E0950B2EBA2FA02D0B01AA
S11304D0B90190010C01CA01A0011124FF27591B85
S11304E099F0593F50F4503E68F11A16F040A22F8B
S11304F0232F342F4427585FF3CF469537952795FC
S1130500A795F0405395C9F77EF41F16BA0B620BFA
S1130510730B840BBAF09150A1F0FF0FBB1F661F41
S1130520771F881FC2F70EC0BA0F621F731F841F84
S113053048F4879577956795B795F7959E3F08F0AA
S1130540B3CF9395880F08F09927EE0F9795879569
S1130550089503D008F481E00895990F0008550F19
S1130560AA0BE0E8FEEF16161706E807F907C0F035
S113057012161306E407F50798F0621B730B840B3D
S1130580950B39F40A2661F0232B242B252B21F417
S113059008950A2609F4A140A6958FEF811D811DB7
S11305A0089597F99F6780E870E060E008959FEFF1
S11305B080EC089500240A941616170618060906F6
S11305C0089500240A9412161306140605060895C5
S11305D0092E0394000C11F4882352F0BB0F40F44D
S11305E0BF2B11F460FF04C06F5F7F4F8F4F9F4F8D
S11305F0089557FD9058440F551F59F05F3F71F00F
S11306004795880F97FB991F61F09F3F79F0879575
S11306100895121613061406551FF2CF4695F1DFFE
S113062008C0161617061806991FF1CF869571058E
S1130630610508940895E894BB2766277727CB01C2
S113064097F908958ADF08F48FEF0895F894FFCF9F
S107065001000000A1
S9030000FC
