S010000074657374756172742E7372656398
S113000045C0000060C000005EC000005CC000008D
S11300105AC0000058C0000056C0000054C0000080
S113002052C0000050C000004EC000004CC0000090
S11300304AC000007EC0000046C0000044C000006A
S113004042C0000040C000003EC000003CC00000B0
S11300503AC0000038C0000036C0000034C00000C0
S113006032C0000030C000002EC000002CC00000D0
S11300702AC0000028C0000026C0000024C00000E0
S113008022C0000020C000001EC0000011241FBEBA
S1130090CFEFD0E4DEBFCDBF11E0A0E0B1E0E8E5F2
S11300A0F4E000E00BBF02C007900D92A430B1074A
S11300B0D9F721E0A4E0B1E001C01D92A930B20754
S11300C0E1F7CAD0C7C19CCF6093000170930101CE
S11300D080930201909303016093040170930501DE
S11300E0809306019093070108958BE0809381002B
S11300F08DE790E0909389008093880082E080935C
S11301006F001092850010928400809100019091FC
S11301100101A0910201B091030180930401909325
S11301200501A0930601B09307018FB780688FBFC4
S113013008951F920F920FB60F9211248F939F93DD
S1130140AF93BF938091040190910501A0910601A2
S1130150B09107010197A109B1098093040190931B
S11301600501A0930601B0930701892B8A2B8B2BE1
S113017099F481E08093080180910001909101013C
S1130180A0910201B09103018093040190930501B1
S1130190A0930601B0930701BF91AF919F918F91F6
S11301A00F900FBE0F901F901895813081F0E1ECF5
S11301B0F0E0808188618083E2ECF0E080818660F9
S11301C0808383E38093C4001092C5000895E9EC12
S11301D0F0E0808188618083EAECF0E080818660D1
S11301E0808383E38093CC001092CD000895613026
S11301F041F0E0ECF0E0908195FFFDCF8093C600E4
S11302000895E8ECF0E0908195FFFDCF8093CE0057
S1130210089581E081B982E082B90895109885E05B
S11302208A95F1F70000109A8AE18A95F1F700C0E7
S11302301098019BFECF019B0BC060E070E0CB01E6
S113024020E030E040E85FE324D00199F9CF08953D
S113025060E070E0CB01089580E0A7DF81E0A5DFD6
S11302606AE070E080E090E02FDF3FDFD2DFC0EC97
S1130270D0E0809108018823E1F3D0DF288125FFB5
S113028004C06BD0862F60E0B2DF10920801F1CF7A
S11302905058BB27AA270ED0A3C094D030F099D0D1
S11302A020F031F49F3F11F41EF489C00EF4E09560
S11302B0E7FB7FC0E92FA5D080F3BA176207730765
S11302C08407950718F071F49EF5BDC00EF4E0950F
S11302D00B2EBA2FA02D0B01B90190010C01CA01FC
S11302E0A0011124FF27591B99F0593F50F4503EA7
S11302F068F11A16F040A22F232F342F4427585F99
S1130300F3CF469537952795A795F0405395C9F7B0
S11303107EF41F16BA0B620B730B840BBAF0915068
S1130320A1F0FF0FBB1F661F771F881FC2F70EC007
S1130330BA0F621F731F841F48F4879577956795DA
S1130340B795F7959E3F08F0B3CF9395880F08F0C3
S11303509927EE0F9795879508955BD088F09F575E
S113036090F0B92F9927B751A0F0D1F0660F771FFD
S1130370881F991F1AF0BA95C9F712C0B13081F0DD
S113038062D0B1E008955FC0672F782F8827B85FE7
S113039039F0B93FCCF3869577956795B395D9F73E
S11303A03EF490958095709561957F4F8F4F9F4F48
S11303B0089597F99F6780E870E060E008959FEFE3
S11303C080EC089500240A941616170618060906E8
S11303D0089500240A9412161306140605060895B7
S11303E0092E0394000C11F4882352F0BB0F40F43F
S11303F0BF2B11F460FF04C06F5F7F4F8F4F9F4F7F
S1130400089557FD9058440F551F59F05F3F71F000
S11304104795880F97FB991F61F09F3F79F0879567
S11304200895121613061406551FF2CF4695F1DFF0
S113043008C0161617061806991FF1CF8695710580
S1130440610508940895E894BB2766277727CB01B4
S10B045097F90895F894FFCF19
S1070458010000009B
S9030000FC
