S010000074657374756172742E7372656398
S113000045C0000060C000005EC000005CC000008D
S11300105AC0000058C0000056C0000054C0000080
S113002052C0000050C000004EC000004CC0000090
S11300304AC000007EC0000046C0000044C000006A
S113004042C0000040C000003EC000003CC00000B0
S11300503AC0000038C0000036C0000034C00000C0
S113006032C0000030C000002EC000002CC00000D0
S11300702AC0000028C0000026C0000024C00000E0
S113008022C0000020C000001EC0000011241FBEBA
S1130090CFEFD0E4DEBFCDBF11E0A0E0B1E0E4E3F8
S11300A0FCE000E00BBF02C007900D92AE30B10738
S11300B0D9F721E0AEE0B1E001C01D92A633B2074A
S11300C0E1F798D3B5C59CCF60930A0170930B01F7
S11300D080930C0190930D0160930F0170931001B4
S11300E0809311019093120108958BE08093810015
S11300F08DE790E0909389008093880082E080935C
S11301006F00109285001092840080910A019091F2
S11301100B01A0910C01B0910D0180930F019093FC
S11301201001A0931101B09312018FB780688FBFA3
S113013008951F920F920FB60F9211248F939F93DD
S1130140AF93BF9380910F0190911001A091110181
S1130150B09112010197A109B10980930F01909305
S11301601001A0931101B0931201892B8A2B8B2BC0
S113017099F481E08093130180910A0190910B011D
S1130180A0910C01B0910D0180930F019093100187
S1130190A0931101B0931201BF91AF919F918F91E0
S11301A00F900FBE0F901F901895813081F0E1ECF5
S11301B0F0E0808188618083E2ECF0E080818660F9
S11301C0808383E38093C4001092C5000895E9EC12
S11301D0F0E0808188618083EAECF0E080818660D1
S11301E0808383E38093CC001092CD00089585E54D
S11301F081B98AEA82B90895CF9392B121E030E0BF
S1130200A90102C0440F551F8A95E2F7842F8095F7
S1130210982392B995E09A95F1F7000092B1492B91
S113022042B99AE19A95F1F700C092B1892382B953
S113023002C0220F331F6A95E2F7C22F80B18C23CC
S1130240E9F380B1282361F060E070E0CB0120E0A5
S113025030E040E85FE3F0D220B12C23C1F703C0C3
S113026060E070E0CB01CF9108954F925F926F925E
S11302707F928F929F92AF92BF92CF92EF92FF9212
S11302800F931F93CF93DF9300D000D000D0CDB74E
S1130290DEB74B015C0129833A834B835C832701DE
S11302A038018C2D81708D83C1FE03C082608D83E3
S11302B003C09D819D7F9D8320E030E040E152E4B6
S11302C0C501B401FFD388239CF081E08E8320E034
S11302D030E040E152E469817A818B819C81F2D3E0
S11302E088230CF41E8281E09E818927C1F41BC0FF
S11302F020E030E040E152E4C501B40101D3882399
S11303000CF066C020E030E040E152E469817A817B
S11303108B819C81D7D388230CF45CC083E09D81BE
S11303209061998303C09D819F7E998381FF04C05E
S113033089818062898303C099819F7D998320E0AC
S113034030E040E452E4C301B201DAD288236CF411
S113035081E08D8320E030E040E152E4C301B2014A
S1130360B1D388231CF41D8201C01D8220E030E03B
S113037040E152E4C301B201C3D288235CF420E01B
S113038030E040EC51E4C301B2019CD3882314F063
S113039092E09D8320E030E040EC51E4C301B201DF
S11303A0AFD288232CF08D81982F927031F001C048
S11303B083E099819860998303C09981977F998399
S11303C080FF03C08981846007C089818B7F04C05A
S11303D080E0A9CF82E0A7CF26960FB6F894DEBFBF
S11303E00FBECDBFDF91CF911F910F91FF90EF9082
S11303F0CF90BF90AF909F908F907F906F905F90C1
S11304004F900895AF92CF92EF92FF920F931F9364
S1130410CF93DF93CDB7DEB728DF9091C00095FF6F
S11304200AC0AA0CAA0CAA0CAA0C869586958F70F1
S1130430A82AA092C600DF91CF911F910F91FF903F
S1130440EF90CF90AF900895AAD32091C00025FFDC
S113045008C0907899231CF401979F6F01968093AC
S1130460C600089580913501882319F0813041F048
S113047004C081E08093350103C0109235010895D2
S1130480E8E0F1E061818081B7DE6093140170934C
S113049015018093160190931701E6E0F1E0618164
S11304A08081AADE60932B0170932C0180932D012F
S11304B090932E01E4E0F1E0618180819DDE609300
S11304C020017093210180932201909323010895C8
S11304D08F92AF92CF92EF92FF920F931F938091DE
S11304E03001882319F0813041F004C081E0809309
S11304F0300103C01092300120C0E0902701F09039
S113050028010091290110912A01209118013091AC
S1130510190140911A0150911B01609131017091B0
S1130520320180913301909134016894882481F8D8
S1130530A0901C01CC24C39465DF1F910F91FF9000
S1130540EF90CF90AF908F90089580912F018130DC
S113055051F018F0823079F01AC081E080932F01B5
S1130560109225010895809126018823F1F082E0FC
S113057080932F010EC0809125018B3F50F081E0C4
S113058080932F0110922601109225010895823044
S113059061F48091250180FD02C0169A01C016986D
S11305A0809125018F5F809325010895F8D28F7083
S11305B09078992324F40197806F9F6F019680931C
S11305C01C0108954F925F926F927F928F929F9237
S11305D0AF92BF92CF92EF92FF920F931F93CF935C
S11305E0DF9300D000D0CDB7DEB780901401909097
S11305F01501A0901601B0901701C501B40184D172
S113060070E080E090E0ACD16093310170933201EE
S1130610809333019093340140902B0150902C012E
S113062060902D0170902E01C301B2016DD170E074
S113063080E090E095D16093180170931901809344
S11306401A0190931B018091200190912101A091A6
S11306502201B091230189839A83AB83BC83BC01BB
S1130660CD0152D170E080E090E07AD1609327010F
S1130670709328018093290190932A01C12CE98069
S1130680FA800B811C81A3019201C501B401EDDD47
S1130690869586958F7090911C0189130AC080916C
S11306A024018F5F8093240180911F018F5F8093C9
S11306B01F010F900F900F900F90DF91CF911F911A
S11306C00F91FF90EF90CF90BF90AF909F908F903D
S11306D07F906F905F904F90089580911E018230BB
S11306E091F128F4882349F0813059F057C08330C0
S11306F0A9F1843009F44CC051C081E080931E01FB
S11307005DC007991DC01092310110923201109200
S113071033011092340110921801109219011092B1
S11307201A0110921B0110922701109228011092B5
S1130730290110922A0110921C0182E080931E016B
S113074010921F012EC0079903C010921E0103C00E
S113075083E080931E011092260123C0809124011E
S1130760882349F082E080931E0181E08093260172
S1130770109224012DC0079903C010921E01089500
S113078080911D01883758F184E080931E012EC0AA
S113079007992CC081E080931E0110C010921E01A5
S11307A0089580911E01823099F018F4813009F582
S11307B005C08330A1F08430C9F0089545DE10925D
S11307C024011092260110921F0110921D01089518
S11307D0EDDE80911D018F5F80931D010895F2DE8F
S11307E080911D018F5F80931D01089581E08093A6
S11307F02601089580E0D9DC81E0D7DC61E070E077
S113080080E090E061DC71DCF2DC809113018823EC
S1130810E1F380910E018A3F28F024DE59DE5DDF8A
S113082010920E0192DE80910E018F5F80930E0173
S113083010921301EACF5058BB27AA270ED008C143
S1130840F9D030F0FED020F031F49F3F11F41EF4C3
S1130850EEC00EF4E095E7FBE4C0E92F0AD180F383
S1130860BA17620773078407950718F071F49EF5A9
S113087022C10EF4E0950B2EBA2FA02D0B01B90165
S113088090010C01CA01A0011124FF27591B99F002
S1130890593F50F4503E68F11A16F040A22F232F0E
S11308A0342F4427585FF3CF469537952795A7955E
S11308B0F0405395C9F77EF41F16BA0B620B730B05
S11308C0840BBAF09150A1F0FF0FBB1F661F771F76
S11308D0881FC2F70EC0BA0F621F731F841F48F42B
S11308E0879577956795B795F7959E3F08F0B3CFB1
S11308F09395880F08F09927EE0F9795879508959B
S11309006CD008F481E00895BCD088F09F5790F033
S1130910B92F9927B751A0F0D1F0660F771F881F20
S1130920991F1AF0BA95C9F712C0B13081F0C3D03B
S1130930B1E00895C0C0672F782F8827B85F39F0D9
S1130940B93FCCF3869577956795B395D9F73EF47F
S113095090958095709561957F4F8F4F9F4F089527
S1130960E89409C097FB3EF4909580957095619545
S11309707F4F8F4F9F4F9923A9F0F92F96E9BB27FB
S11309809395F695879577956795B795F111F8CF77
S1130990FAF4BB0F11F460FF1BC06F5F7F4F8F4FE2
S11309A09F4F16C0882311F096E911C0772321F0D8
S11309B09EE8872F762F05C0662371F096E8862F70
S11309C070E060E02AF09A95660F771F881FDAF7C7
S11309D0880F9695879597F90895990F0008550FF4
S11309E0AA0BE0E8FEEF16161706E807F907C0F0B1
S11309F012161306E407F50798F0621B730B840BB9
S1130A00950B39F40A2661F0232B242B252B21F492
S1130A1008950A2609F4A140A6958FEF811D811D32
S1130A20089597F99F6780E870E060E008959FEF6C
S1130A3080EC089500240A94161617061806090671
S1130A40089500240A941216130614060506089540
S1130A50092E0394000C11F4882352F0BB0F40F4C8
S1130A60BF2B11F460FF04C06F5F7F4F8F4F9F4F08
S1130A70089557FD9058440F551F59F05F3F71F08A
S1130A804795880F97FB991F61F09F3F79F08795F1
S1130A900895121613061406551FF2CF4695F1DF7A
S1130AA008C0161617061806991FF1CF869571050A
S1130AB0610508940895E894BB2766277727CB013E
S1130AC097F908958ADF08F48FEF0895A1E21A2EAA
S1130AD0AA1BBB1BFD010DC0AA1FBB1FEE1FFF1FDE
S1130AE0A217B307E407F50720F0A21BB30BE40B2E
S1130AF0F50B661F771F881F991F1A9469F7609575
S1130B007095809590959B01AC01BD01CF0108952E
S1130B108F929F92AF92BF92CF92DF92EF92FF9209
S1130B20CF93DF93EC01688179818A819B81611580
S1130B3071058105910521F464E279ED8BE597E077
S1130B402DE133EF41E050E038D049015A019B01D7
S1130B50AC01A7EAB1E44DD06B017C01ACEEB4EF7B
S1130B60A501940152D0DC01CB018C0D9D1DAE1D5D
S1130B70BF1DB7FF03C00197A109B04888839983BB
S1130B80AA83BB839F77DF91CF91FF90EF90DF9093
S1130B90CF90BF90AF909F908F900895B9CF80E091
S1130BA091E0B6CFA0E0B0E0809300019093010102
S1130BB0A0930201B09303010895052E97FB16F448
S1130BC000940FD057FD05D081DF07FC02D046F416
S1130BD008C050954095309521953F4F4F4F5F4F3A
S1130BE0089590958095709561957F4F8F4F9F4F95
S1130BF008950FD0A59F900DB49F900DA49F800DD4
S1130C00911D11240895B7FFF4CFF3DF821B930BDA
S1130C100895A29FB001B39FC001A39F700D811DD1
S1130C201124911DB29F700D811D1124911D0895F1
S1070C30F894FFCF62
S1110C3401000000040502030001010000009D
S9030000FC
