S010000074657374756172742E7372656398
S113000045C0000060C000005EC000005CC000008D
S11300105AC0000058C0000056C0000054C0000080
S113002052C0000050C000004EC000004CC0000090
S11300304AC000007EC0000046C0000044C000006A
S113004042C0000040C000003EC000003CC00000B0
S11300503AC0000038C0000036C0000034C00000C0
S113006032C0000030C000002EC000002CC00000D0
S11300702AC0000028C0000026C0000024C00000E0
S113008022C0000020C000001EC0000011241FBEBA
S1130090CFEFD0E4DEBFCDBF11E0A0E0B1E0E8EAED
S11300A0F5E000E00BBF02C007900D92A430B10749
S11300B0D9F721E0A4E0B1E001C01D92AB30B20752
S11300C0E1F769D16FC29CCF609300017093010185
S11300D080930201909303016093060170930701DA
S11300E0809308019093090108958BE08093810027
S11300F08DE790E0909389008093880082E080935C
S11301006F001092850010928400809100019091FC
S11301100101A0910201B091030180930601909323
S11301200701A0930801B09309018FB780688FBFBE
S113013008951F920F920FB60F9211248F939F93DD
S1130140AF93BF938091060190910701A09108019C
S1130150B09109010197A109B10980930601909317
S11301600701A0930801B0930901892B8A2B8B2BDB
S113017099F481E080930A0180910001909101013A
S1130180A0910201B09103018093060190930701AD
S1130190A0930801B0930901BF91AF919F918F91F2
S11301A00F900FBE0F901F901895813081F0E1ECF5
S11301B0F0E0808188618083E2ECF0E080818660F9
S11301C0808383E38093C4001092C5000895E9EC12
S11301D0F0E0808188618083EAECF0E080818660D1
S11301E0808383E38093CC001092CD000895613026
S11301F041F0E0ECF0E0908195FFFDCF8093C600E4
S11302000895E8ECF0E0908195FFFDCF8093CE0057
S1130210089595E591B99AEA92B98093050160939E
S113022004010895CF9332B181E090E0AC010090D5
S1130230050102C0440F551F0A94E2F7242F2095AC
S1130240232322B925E02A95F1F7000042B19C014D
S11302500090050102C0220F331F0A94E2F7242BF9
S113026022B92AE12A95F1F700C032B1AC0100901D
S1130270050102C0440F551F0A94E2F7242F20956C
S1130280232322B99C010090040102C0220F331FD2
S11302900A94E2F7C22F80B18C23E9F380B1822360
S11302A061F060E070E0CB0120E030E040E85FE323
S11302B098D020B12C23C1F703C060E070E0CB01DB
S11302C0CF9108958F929F92AF92BF92CF92EF9267
S11302D0FF920F931F93CF93DF9347015801CC2DC7
S11302E0C170C1FE02C0C26001C0CD7F20E030E019
S11302F040E452E4C501B40151D1882314F0D3E0A1
S113030001C0D0E020E030E040E452E4C501B40193
S1130310CCD0882354F420E030E040E152E4C5011D
S1130320B4013CD188230CF0D2E020E030E040E17D
S113033052E4C501B401B9D0882354F420E030E07C
S113034040EC51E4C501B40129D188230CF0D1E07B
S113035020E030E040EC51E4C501B401A6D088238C
S113036034F09D2FD27021F08C2F886303C090E06D
S11303708C2F806390FF02C0846001C08B7FDF916B
S1130380CF911F910F91FF90EF90CF90BF90AF90BE
S11303909F908F90089580E008DF81E006DF6AE097
S11303A070E080E090E090DEA0DE65E084E031DF84
S11303B0C0ECD0E080910A018823E1F333DF288187
S11303C025FF0BC0C12C7B018C0120E030E0A9018A
S11303D0CA01B90177DF60E00ADF10920A01EACFAF
S11303E05058BB27AA270ED09FC090D030F095D08C
S11303F020F031F49F3F11F41EF485C00EF4E09513
S1130400E7FB7BC0E92FA1D080F3BA17620773071B
S11304108407950718F071F49EF5B9C00EF4E095C1
S11304200B2EBA2FA02D0B01B90190010C01CA01AA
S1130430A0011124FF27591B99F0593F50F4503E55
S113044068F11A16F040A22F232F342F4427585F47
S1130450F3CF469537952795A795F0405395C9F75F
S11304607EF41F16BA0B620B730B840BBAF0915017
S1130470A1F0FF0FBB1F661F771F881FC2F70EC0B6
S1130480BA0F621F731F841F48F487957795679589
S1130490B795F7959E3F08F0B3CF9395880F08F072
S11304A09927EE0F97958795089503D008F481E076
S11304B00895990F0008550FAA0BE0E8FEEF1616F1
S11304C01706E807F907C0F012161306E407F50744
S11304D098F0621B730B840B950B39F40A2661F0B8
S11304E0232B242B252B21F408950A2609F4A1405B
S11304F0A6958FEF811D811D089597F99F6780E868
S113050070E060E008959FEF80EC089500240A9461
S11305101616170618060906089500240A941216DA
S11305201306140605060895092E0394000C11F40D
S1130530882352F0BB0F40F4BF2B11F460FF04C0BA
S11305406F5F7F4F8F4F9F4F089557FD9058440F13
S1130550551F59F05F3F71F04795880F97FB991F1E
S113056061F09F3F79F087950895121613061406DB
S1130570551FF2CF4695F1DF08C016161706180668
S1130580991FF1CF86957105610508940895E89443
S1130590BB2766277727CB0197F908958ADF08F4EC
S10B05A08FEF0895F894FFCFDA
S10705A8010000004A
S9030000FC
